:020000040800F2
:10000000600600206D0100087501000877010008F6
:10001000790100087B0100087D0100080000000054
:100020000000000000000000000000007F01000848
:10003000810100080000000083010008850100081C
:100040008701000887010008870100088701000870
:100050008701000887010008870100088701000860
:100060008701000887010008870100088701000850
:100070008701000887010008870100088701000840
:100080008701000887010008870100088701000830
:100090008701000887010008870100088701000820
:1000A0008701000887010008870100088701000810
:1000B0008701000887010008870100088701000800
:1000C00087010008870100088701000887010008F0
:1000D00087010008870100088701000887010008E0
:1000E00087010008870100088701000800F002F876
:1000F00000F02CF80AA090E8000C82448344AAF196
:100100000107DA4501D100F021F8AFF2090EBAE893
:100110000F0013F0010F18BFFB1A43F0010318473B
:100120007003000080030000002300240025002647
:10013000103A28BF78C1FBD8520728BF30C148BF4A
:100140000B6070471FB51FBD10B510BD00F031F832
:100150001146FFF7F7FF00F091F900F04FF803B4F4
:10016000FFF7F2FF03BC00F057F800000948804792
:1001700009480047FEE7FEE7FEE7FEE7FEE7FEE789
:10018000FEE7FEE7FEE7FEE704480549054A064BA1
:1001900070470000F1030008ED0000086000002037
:1001A0006006002060020020600200207047704757
:1001B0007047754600F02CF8AE4605006946534678
:1001C00020F00700854618B020B5FFF7DDFFBDE839
:1001D00020404FF000064FF000074FF000084FF0AE
:1001E000000B21F00701AC46ACE8C009ACE8C0093F
:1001F000ACE8C009ACE8C0098D46704710B50446AC
:10020000AFF300802046BDE81040FFF7A8BF000014
:10021000004870470000002001491820ABBEFEE7EF
:1002200026000200704710B500F002F810BD000073
:100230000CB50020019000903348006840F48030F5
:100240003149086000BF3048006800F40030009079
:100250000198401C0190009818B90198B0F5A06F62
:10026000F1D12948006800F4003010B1012000905D
:1002700001E0002000900098012843D12348006845
:1002800040F01000214908600846006820F0030093
:1002900008600846006840F0020008601A4840689C
:1002A000194948600846406848600846406840F47C
:1002B000806048600846406820F47C10486008462A
:1002C000406840F4E81048600846006840F08070DC
:1002D000086000BF0C48006800F000700028F9D0EA
:1002E0000948406820F00300074948600846406814
:1002F00040F00200486000BF0348406800F00C0076
:100300000828F9D10CBD0000001002400020024076
:100310002E48806940F004002C49886108468069B5
:1003200040F0010088612A48006820F44000284914
:1003300008600846006840F400000860084600684D
:1003400040F4001008600846006820F04040086053
:100350000846006840F0004008600846006840F029
:10036000405008600846006820F040600860084679
:10037000006840F0C0000860402015491031086056
:100380001248806940F48050104988611148008803
:1003900040F038000F4908800846008840F400709B
:1003A00008800846008840F480700880084600886D
:1003B00040F0040008800846008840F002000880F1
:1003C0000846008840F04000088070470010024056
:1003D000000801400030014000BF0449098901F0D4
:1003E00080010029F9D1014988817047003001401E
:1003F00010B51348006840F0010011490860084634
:100400004068104908400E494860084600680E4997
:1004100008400B4908600846006820F48020086006
:100420000846406820F4FE0048604FF41F008860D2
:10043000FFF7F9FE4FF000600449086010BD0000AE
:10044000001002400000FFF8FFFFF6FE08ED00E09C
:100450000848806940F010000649886106484068F5
:1004600020F44000044948600846406840F4801089
:10047000486070470010024000100140FFF748FF3D
:10048000FFF7E6FF02E09A20FFF7A6FFFBE7000078
:10049000A0040008000000206006000028010008F9
:04000005080000ED02
:00000001FF
